{
  "_format": "hh3-artifact-1",
  "contractName": "PriceTracker",
  "sourceName": "contracts/PriceTracker.sol",
  "abi": [
    {
      "inputs": [],
      "stateMutability": "nonpayable",
      "type": "constructor"
    },
    {
      "anonymous": false,
      "inputs": [
        {
          "indexed": false,
          "internalType": "string",
          "name": "token",
          "type": "string"
        },
        {
          "indexed": false,
          "internalType": "uint256",
          "name": "price",
          "type": "uint256"
        },
        {
          "indexed": false,
          "internalType": "uint256",
          "name": "timestamp",
          "type": "uint256"
        }
      ],
      "name": "PriceLogged",
      "type": "event"
    },
    {
      "inputs": [],
      "name": "getLatestBTC",
      "outputs": [
        {
          "internalType": "int256",
          "name": "",
          "type": "int256"
        }
      ],
      "stateMutability": "view",
      "type": "function"
    },
    {
      "inputs": [],
      "name": "getLatestETH",
      "outputs": [
        {
          "internalType": "int256",
          "name": "",
          "type": "int256"
        }
      ],
      "stateMutability": "view",
      "type": "function"
    },
    {
      "inputs": [],
      "name": "getLatestLINK",
      "outputs": [
        {
          "internalType": "int256",
          "name": "",
          "type": "int256"
        }
      ],
      "stateMutability": "view",
      "type": "function"
    },
    {
      "inputs": [],
      "name": "logLatestPrice",
      "outputs": [],
      "stateMutability": "nonpayable",
      "type": "function"
    }
  ],
  "bytecode": "0x6080604052348015600e575f5ffd5b505f80546001600160a01b0319908116734adc67696ba383f43dd60a9e78f2c97fbbfc7cb117909155600180548216730fb99723aee6f420bead13e6bbb79b7e6f0342981790556002805490911673b113f5a928bcff189c998ab20d753a47f9de5a611790556104b3806100815f395ff3fe608060405234801561000f575f5ffd5b506004361061004a575f3560e01c806345c215251461004e5780634b65c1b51461006857806364d7a4b01461007057806389de799d1461007a575b5f5ffd5b610056610082565b60405190815260200160405180910390f35b6100566100f8565b61007861014a565b005b6100566103bf565b5f805460408051633fabe5a360e21b8152905183926001600160a01b03169163feaf968c9160048083019260a09291908290030181865afa1580156100c9573d5f5f3e3d5ffd5b505050506040513d601f19601f820116820180604052508101906100ed919061042f565b509195945050505050565b5f5f60025f9054906101000a90046001600160a01b03166001600160a01b031663feaf968c6040518163ffffffff1660e01b815260040160a060405180830381865afa1580156100c9573d5f5f3e3d5ffd5b5f805460408051633fabe5a360e21b8152905183926001600160a01b03169163feaf968c9160048083019260a09291908290030181865afa158015610191573d5f5f3e3d5ffd5b505050506040513d601f19601f820116820180604052508101906101b5919061042f565b509350509250505f5f60015f9054906101000a90046001600160a01b03166001600160a01b031663feaf968c6040518163ffffffff1660e01b815260040160a060405180830381865afa15801561020e573d5f5f3e3d5ffd5b505050506040513d601f19601f82011682018060405250810190610232919061042f565b509350509250505f5f60025f9054906101000a90046001600160a01b03166001600160a01b031663feaf968c6040518163ffffffff1660e01b815260040160a060405180830381865afa15801561028b573d5f5f3e3d5ffd5b505050506040513d601f19601f820116820180604052508101906102af919061042f565b506040805160608082526003908201526208aa8960eb1b6080820152602081018c90529081018a905292955093507f18e1a167b84f8059cdfa22bc8f7fa36612532b7c7087f10925707043e4ffb76792505060a00160405180910390a16040805160608082526003908201526242544360e81b6080820152602081018690529081018490527f18e1a167b84f8059cdfa22bc8f7fa36612532b7c7087f10925707043e4ffb7679060a00160405180910390a1604080516060808252600490820152634c494e4b60e01b6080820152602081018490529081018290527f18e1a167b84f8059cdfa22bc8f7fa36612532b7c7087f10925707043e4ffb7679060a00160405180910390a1505050505050565b5f5f60015f9054906101000a90046001600160a01b03166001600160a01b031663feaf968c6040518163ffffffff1660e01b815260040160a060405180830381865afa1580156100c9573d5f5f3e3d5ffd5b805169ffffffffffffffffffff8116811461042a575f5ffd5b919050565b5f5f5f5f5f60a08688031215610443575f5ffd5b61044c86610411565b6020870151604088015160608901519297509095509350915061047160808701610411565b9050929550929590935056fea2646970667358221220426a5d9681135b8786a62ca0225b446d5bc906724de852680379e6f34a78dbc364736f6c634300081c0033",
  "linkReferences": {},
  "deployedLinkReferences": {},
  "immutableReferences": {},
  "inputSourceName": "project/contracts/PriceTracker.sol",
  "buildInfoId": "solc-0_8_28-9cf3a0bf0b57e58edd07a34dc5c53470957b7da8"
}